{
  "contractName": "PaymentGateway",
  "abi": [
    {
      "inputs": [],
      "stateMutability": "nonpayable",
      "type": "constructor"
    },
    {
      "inputs": [
        {
          "internalType": "address",
          "name": "dest",
          "type": "address"
        }
      ],
      "name": "sendPayment",
      "outputs": [],
      "stateMutability": "payable",
      "type": "function",
      "payable": true
    },
    {
      "inputs": [],
      "name": "withdraw",
      "outputs": [],
      "stateMutability": "nonpayable",
      "type": "function"
    },
    {
      "inputs": [],
      "name": "balance",
      "outputs": [
        {
          "internalType": "uint256",
          "name": "",
          "type": "uint256"
        }
      ],
      "stateMutability": "view",
      "type": "function",
      "constant": true
    }
  ],
  "bytecode": "0x60a060405234801561001057600080fd5b5060405161001d90610075565b604051809103906000f080158015610039573d6000803e3d6000fd5b5073ffffffffffffffffffffffffffffffffffffffff1660808173ffffffffffffffffffffffffffffffffffffffff1660601b81525050610082565b610d728061059683390190565b60805160601c6104e96100ad6000396000818160990152818161016901526101fa01526104e96000f3fe6080604052600436106100345760003560e01c80633ccfd60b146100395780638a7644a814610050578063b69ef8a81461006c575b600080fd5b34801561004557600080fd5b5061004e610097565b005b61006a600480360381019061006591906102d0565b610124565b005b34801561007857600080fd5b506100816101f6565b60405161008e919061040b565b60405180910390f35b7f000000000000000000000000000000000000000000000000000000000000000073ffffffffffffffffffffffffffffffffffffffff166351cff8d9336040518263ffffffff1660e01b81526004016100f091906103d0565b600060405180830381600087803b15801561010a57600080fd5b505af115801561011e573d6000803e3d6000fd5b50505050565b60003411610167576040517f08c379a000000000000000000000000000000000000000000000000000000000815260040161015e906103eb565b60405180910390fd5b7f000000000000000000000000000000000000000000000000000000000000000073ffffffffffffffffffffffffffffffffffffffff1663f340fa0134836040518363ffffffff1660e01b81526004016101c191906103b5565b6000604051808303818588803b1580156101da57600080fd5b505af11580156101ee573d6000803e3d6000fd5b505050505050565b60007f000000000000000000000000000000000000000000000000000000000000000073ffffffffffffffffffffffffffffffffffffffff1663e3a9db1a336040518263ffffffff1660e01b815260040161025191906103b5565b60206040518083038186803b15801561026957600080fd5b505afa15801561027d573d6000803e3d6000fd5b505050506040513d601f19601f820116820180604052508101906102a191906102f9565b905090565b6000813590506102b581610485565b92915050565b6000815190506102ca8161049c565b92915050565b6000602082840312156102e257600080fd5b60006102f0848285016102a6565b91505092915050565b60006020828403121561030b57600080fd5b6000610319848285016102bb565b91505092915050565b61032b81610449565b82525050565b61033a81610437565b82525050565b600061034d602b83610426565b91507f5061796d656e74476174657761793a2043616e6e6f742073656e64206120766160008301527f6c7565206f66207a65726f0000000000000000000000000000000000000000006020830152604082019050919050565b6103af8161047b565b82525050565b60006020820190506103ca6000830184610331565b92915050565b60006020820190506103e56000830184610322565b92915050565b6000602082019050818103600083015261040481610340565b9050919050565b600060208201905061042060008301846103a6565b92915050565b600082825260208201905092915050565b60006104428261045b565b9050919050565b60006104548261045b565b9050919050565b600073ffffffffffffffffffffffffffffffffffffffff82169050919050565b6000819050919050565b61048e81610437565b811461049957600080fd5b50565b6104a58161047b565b81146104b057600080fd5b5056fea26469706673582212201b00472ca5303b73e83de72ddec586a386baac0d91e18c36f765012811a65b9364736f6c63430008000033608060405234801561001057600080fd5b5060006100216100c460201b60201c565b9050806000806101000a81548173ffffffffffffffffffffffffffffffffffffffff021916908373ffffffffffffffffffffffffffffffffffffffff1602179055508073ffffffffffffffffffffffffffffffffffffffff16600073ffffffffffffffffffffffffffffffffffffffff167f8be0079c531659141344cd1fd0a4f28419497f9722a3daafe3b4186f6b6457e060405160405180910390a3506100cc565b600033905090565b610c97806100db6000396000f3fe6080604052600436106100555760003560e01c806351cff8d91461005a578063715018a6146100835780638da5cb5b1461009a578063e3a9db1a146100c5578063f2fde38b14610102578063f340fa011461012b575b600080fd5b34801561006657600080fd5b50610081600480360381019061007c91906108cc565b610147565b005b34801561008f57600080fd5b506100986102c7565b005b3480156100a657600080fd5b506100af610401565b6040516100bc9190610a8e565b60405180910390f35b3480156100d157600080fd5b506100ec60048036038101906100e791906108a3565b61042a565b6040516100f99190610b29565b60405180910390f35b34801561010e57600080fd5b50610129600480360381019061012491906108a3565b610473565b005b610145600480360381019061014091906108a3565b61061c565b005b61014f61077d565b73ffffffffffffffffffffffffffffffffffffffff1661016d610401565b73ffffffffffffffffffffffffffffffffffffffff16146101c3576040517f08c379a00000000000000000000000000000000000000000000000000000000081526004016101ba90610b09565b60405180910390fd5b6000600160008373ffffffffffffffffffffffffffffffffffffffff1673ffffffffffffffffffffffffffffffffffffffff1681526020019081526020016000205490506000600160008473ffffffffffffffffffffffffffffffffffffffff1673ffffffffffffffffffffffffffffffffffffffff16815260200190815260200160002081905550610275818373ffffffffffffffffffffffffffffffffffffffff1661078590919063ffffffff16565b8173ffffffffffffffffffffffffffffffffffffffff167f7084f5476618d8e60b11ef0d7d3f06914655adb8793e28ff7f018d4c76d505d5826040516102bb9190610b29565b60405180910390a25050565b6102cf61077d565b73ffffffffffffffffffffffffffffffffffffffff166102ed610401565b73ffffffffffffffffffffffffffffffffffffffff1614610343576040517f08c379a000000000000000000000000000000000000000000000000000000000815260040161033a90610b09565b60405180910390fd5b600073ffffffffffffffffffffffffffffffffffffffff1660008054906101000a900473ffffffffffffffffffffffffffffffffffffffff1673ffffffffffffffffffffffffffffffffffffffff167f8be0079c531659141344cd1fd0a4f28419497f9722a3daafe3b4186f6b6457e060405160405180910390a360008060006101000a81548173ffffffffffffffffffffffffffffffffffffffff021916908373ffffffffffffffffffffffffffffffffffffffff160217905550565b60008060009054906101000a900473ffffffffffffffffffffffffffffffffffffffff16905090565b6000600160008373ffffffffffffffffffffffffffffffffffffffff1673ffffffffffffffffffffffffffffffffffffffff168152602001908152602001600020549050919050565b61047b61077d565b73ffffffffffffffffffffffffffffffffffffffff16610499610401565b73ffffffffffffffffffffffffffffffffffffffff16146104ef576040517f08c379a00000000000000000000000000000000000000000000000000000000081526004016104e690610b09565b60405180910390fd5b600073ffffffffffffffffffffffffffffffffffffffff168173ffffffffffffffffffffffffffffffffffffffff16141561055f576040517f08c379a000000000000000000000000000000000000000000000000000000000815260040161055690610aa9565b60405180910390fd5b8073ffffffffffffffffffffffffffffffffffffffff1660008054906101000a900473ffffffffffffffffffffffffffffffffffffffff1673ffffffffffffffffffffffffffffffffffffffff167f8be0079c531659141344cd1fd0a4f28419497f9722a3daafe3b4186f6b6457e060405160405180910390a3806000806101000a81548173ffffffffffffffffffffffffffffffffffffffff021916908373ffffffffffffffffffffffffffffffffffffffff16021790555050565b61062461077d565b73ffffffffffffffffffffffffffffffffffffffff16610642610401565b73ffffffffffffffffffffffffffffffffffffffff1614610698576040517f08c379a000000000000000000000000000000000000000000000000000000000815260040161068f90610b09565b60405180910390fd5b600034905080600160008473ffffffffffffffffffffffffffffffffffffffff1673ffffffffffffffffffffffffffffffffffffffff168152602001908152602001600020546106e89190610b60565b600160008473ffffffffffffffffffffffffffffffffffffffff1673ffffffffffffffffffffffffffffffffffffffff168152602001908152602001600020819055508173ffffffffffffffffffffffffffffffffffffffff167f2da466a7b24304f47e87fa2e1e5a81b9831ce54fec19055ce277ca2f39ba42c4826040516107719190610b29565b60405180910390a25050565b600033905090565b804710156107c8576040517f08c379a00000000000000000000000000000000000000000000000000000000081526004016107bf90610ae9565b60405180910390fd5b60008273ffffffffffffffffffffffffffffffffffffffff16826040516107ee90610a79565b60006040518083038185875af1925050503d806000811461082b576040519150601f19603f3d011682016040523d82523d6000602084013e610830565b606091505b5050905080610874576040517f08c379a000000000000000000000000000000000000000000000000000000000815260040161086b90610ac9565b60405180910390fd5b505050565b60008135905061088881610c33565b92915050565b60008135905061089d81610c4a565b92915050565b6000602082840312156108b557600080fd5b60006108c384828501610879565b91505092915050565b6000602082840312156108de57600080fd5b60006108ec8482850161088e565b91505092915050565b6108fe81610bb6565b82525050565b6000610911602683610b4f565b91507f4f776e61626c653a206e6577206f776e657220697320746865207a65726f206160008301527f64647265737300000000000000000000000000000000000000000000000000006020830152604082019050919050565b6000610977603a83610b4f565b91507f416464726573733a20756e61626c6520746f2073656e642076616c75652c207260008301527f6563697069656e74206d617920686176652072657665727465640000000000006020830152604082019050919050565b60006109dd601d83610b4f565b91507f416464726573733a20696e73756666696369656e742062616c616e63650000006000830152602082019050919050565b6000610a1d602083610b4f565b91507f4f776e61626c653a2063616c6c6572206973206e6f7420746865206f776e65726000830152602082019050919050565b6000610a5d600083610b44565b9150600082019050919050565b610a7381610bfa565b82525050565b6000610a8482610a50565b9150819050919050565b6000602082019050610aa360008301846108f5565b92915050565b60006020820190508181036000830152610ac281610904565b9050919050565b60006020820190508181036000830152610ae28161096a565b9050919050565b60006020820190508181036000830152610b02816109d0565b9050919050565b60006020820190508181036000830152610b2281610a10565b9050919050565b6000602082019050610b3e6000830184610a6a565b92915050565b600081905092915050565b600082825260208201905092915050565b6000610b6b82610bfa565b9150610b7683610bfa565b9250827fffffffffffffffffffffffffffffffffffffffffffffffffffffffffffffffff03821115610bab57610baa610c04565b5b828201905092915050565b6000610bc182610bda565b9050919050565b6000610bd382610bda565b9050919050565b600073ffffffffffffffffffffffffffffffffffffffff82169050919050565b6000819050919050565b7f4e487b7100000000000000000000000000000000000000000000000000000000600052601160045260246000fd5b610c3c81610bb6565b8114610c4757600080fd5b50565b610c5381610bc8565b8114610c5e57600080fd5b5056fea26469706673582212207f788216f4e71f552da14e06335bf6b8132e0716f5624ac3b24cbad9d8118bf964736f6c63430008000033",
  "immutableReferences": {
    "620": [
      {
        "length": 32,
        "start": 153
      },
      {
        "length": 32,
        "start": 361
      },
      {
        "length": 32,
        "start": 506
      }
    ]
  },
  "source": "// SPDX-License-Identifier: MIT\r\n\r\npragma solidity ^0.8.0;\r\n\r\nimport \"./node_modules/@openzeppelin/contracts/utils/escrow/Escrow.sol\";\r\n\r\ncontract PaymentGateway{\r\n  Escrow immutable private escrow;\r\n\r\n  constructor(){\r\n    escrow = new Escrow();\r\n  }\r\n\r\n  //Receives payment on sale\r\n  function sendPayment(address dest) public payable {\r\n    require(msg.value > 0, \"PaymentGateway: Cannot send a value of zero\");\r\n    escrow.deposit{value: msg.value}(dest);\r\n  }\r\n\r\n  //to withdrawl funds\r\n  function withdraw() public {\r\n    escrow.withdraw(payable(msg.sender));\r\n  }\r\n\r\n  // checks balance available to withdraw of msg.sender\r\n  // @return the balance\r\n  function balance() public view returns (uint256) {\r\n    return escrow.depositsOf(msg.sender);\r\n  }\r\n}\r\n",
  "sourcePath": "C:\\Users\\pol\\Desktop\\t\\decentralized-marketplace\\contracts\\PaymentGateway.sol",
  "compiler": {
    "name": "solc",
    "version": "0.8.0+commit.c7dfd78e.Emscripten.clang"
  },
  "schemaVersion": "3.4.4",
  "updatedAt": "2022-05-29T20:55:10.143Z",
  "networkType": "ethereum",
  "devdoc": {
    "kind": "dev",
    "methods": {},
    "version": 1
  },
  "userdoc": {
    "kind": "user",
    "methods": {},
    "version": 1
  }
}