{
  "contractName": "Token",
  "abi": [
    {
      "inputs": [],
      "stateMutability": "nonpayable",
      "type": "constructor"
    },
    {
      "anonymous": false,
      "inputs": [
        {
          "indexed": true,
          "internalType": "address",
          "name": "owner",
          "type": "address"
        },
        {
          "indexed": true,
          "internalType": "address",
          "name": "approved",
          "type": "address"
        },
        {
          "indexed": true,
          "internalType": "uint256",
          "name": "tokenId",
          "type": "uint256"
        }
      ],
      "name": "Approval",
      "type": "event"
    },
    {
      "anonymous": false,
      "inputs": [
        {
          "indexed": true,
          "internalType": "address",
          "name": "owner",
          "type": "address"
        },
        {
          "indexed": true,
          "internalType": "address",
          "name": "operator",
          "type": "address"
        },
        {
          "indexed": false,
          "internalType": "bool",
          "name": "approved",
          "type": "bool"
        }
      ],
      "name": "ApprovalForAll",
      "type": "event"
    },
    {
      "anonymous": false,
      "inputs": [
        {
          "indexed": true,
          "internalType": "address",
          "name": "from",
          "type": "address"
        },
        {
          "indexed": true,
          "internalType": "address",
          "name": "to",
          "type": "address"
        },
        {
          "indexed": true,
          "internalType": "uint256",
          "name": "tokenId",
          "type": "uint256"
        }
      ],
      "name": "Transfer",
      "type": "event"
    },
    {
      "inputs": [
        {
          "internalType": "uint256",
          "name": "",
          "type": "uint256"
        }
      ],
      "name": "Artworks",
      "outputs": [
        {
          "internalType": "uint256",
          "name": "id",
          "type": "uint256"
        },
        {
          "internalType": "address payable",
          "name": "creator",
          "type": "address"
        },
        {
          "internalType": "address",
          "name": "tokenAddress",
          "type": "address"
        },
        {
          "internalType": "string",
          "name": "uri",
          "type": "string"
        },
        {
          "internalType": "uint8",
          "name": "royalty",
          "type": "uint8"
        }
      ],
      "stateMutability": "view",
      "type": "function",
      "constant": true
    },
    {
      "inputs": [
        {
          "internalType": "address",
          "name": "to",
          "type": "address"
        },
        {
          "internalType": "uint256",
          "name": "tokenId",
          "type": "uint256"
        }
      ],
      "name": "approve",
      "outputs": [],
      "stateMutability": "nonpayable",
      "type": "function"
    },
    {
      "inputs": [
        {
          "internalType": "address",
          "name": "owner",
          "type": "address"
        }
      ],
      "name": "balanceOf",
      "outputs": [
        {
          "internalType": "uint256",
          "name": "",
          "type": "uint256"
        }
      ],
      "stateMutability": "view",
      "type": "function",
      "constant": true
    },
    {
      "inputs": [
        {
          "internalType": "uint256",
          "name": "tokenId",
          "type": "uint256"
        }
      ],
      "name": "getApproved",
      "outputs": [
        {
          "internalType": "address",
          "name": "",
          "type": "address"
        }
      ],
      "stateMutability": "view",
      "type": "function",
      "constant": true
    },
    {
      "inputs": [
        {
          "internalType": "address",
          "name": "owner",
          "type": "address"
        },
        {
          "internalType": "address",
          "name": "operator",
          "type": "address"
        }
      ],
      "name": "isApprovedForAll",
      "outputs": [
        {
          "internalType": "bool",
          "name": "",
          "type": "bool"
        }
      ],
      "stateMutability": "view",
      "type": "function",
      "constant": true
    },
    {
      "inputs": [],
      "name": "name",
      "outputs": [
        {
          "internalType": "string",
          "name": "",
          "type": "string"
        }
      ],
      "stateMutability": "view",
      "type": "function",
      "constant": true
    },
    {
      "inputs": [
        {
          "internalType": "uint256",
          "name": "tokenId",
          "type": "uint256"
        }
      ],
      "name": "ownerOf",
      "outputs": [
        {
          "internalType": "address",
          "name": "",
          "type": "address"
        }
      ],
      "stateMutability": "view",
      "type": "function",
      "constant": true
    },
    {
      "inputs": [
        {
          "internalType": "address",
          "name": "from",
          "type": "address"
        },
        {
          "internalType": "address",
          "name": "to",
          "type": "address"
        },
        {
          "internalType": "uint256",
          "name": "tokenId",
          "type": "uint256"
        }
      ],
      "name": "safeTransferFrom",
      "outputs": [],
      "stateMutability": "nonpayable",
      "type": "function"
    },
    {
      "inputs": [
        {
          "internalType": "address",
          "name": "from",
          "type": "address"
        },
        {
          "internalType": "address",
          "name": "to",
          "type": "address"
        },
        {
          "internalType": "uint256",
          "name": "tokenId",
          "type": "uint256"
        },
        {
          "internalType": "bytes",
          "name": "_data",
          "type": "bytes"
        }
      ],
      "name": "safeTransferFrom",
      "outputs": [],
      "stateMutability": "nonpayable",
      "type": "function"
    },
    {
      "inputs": [
        {
          "internalType": "address",
          "name": "operator",
          "type": "address"
        },
        {
          "internalType": "bool",
          "name": "approved",
          "type": "bool"
        }
      ],
      "name": "setApprovalForAll",
      "outputs": [],
      "stateMutability": "nonpayable",
      "type": "function"
    },
    {
      "inputs": [
        {
          "internalType": "bytes4",
          "name": "interfaceId",
          "type": "bytes4"
        }
      ],
      "name": "supportsInterface",
      "outputs": [
        {
          "internalType": "bool",
          "name": "",
          "type": "bool"
        }
      ],
      "stateMutability": "view",
      "type": "function",
      "constant": true
    },
    {
      "inputs": [],
      "name": "symbol",
      "outputs": [
        {
          "internalType": "string",
          "name": "",
          "type": "string"
        }
      ],
      "stateMutability": "view",
      "type": "function",
      "constant": true
    },
    {
      "inputs": [
        {
          "internalType": "address",
          "name": "from",
          "type": "address"
        },
        {
          "internalType": "address",
          "name": "to",
          "type": "address"
        },
        {
          "internalType": "uint256",
          "name": "tokenId",
          "type": "uint256"
        }
      ],
      "name": "transferFrom",
      "outputs": [],
      "stateMutability": "nonpayable",
      "type": "function"
    },
    {
      "inputs": [
        {
          "internalType": "string",
          "name": "uri",
          "type": "string"
        },
        {
          "internalType": "uint8",
          "name": "royalty",
          "type": "uint8"
        }
      ],
      "name": "createArtwork",
      "outputs": [
        {
          "internalType": "uint256",
          "name": "",
          "type": "uint256"
        }
      ],
      "stateMutability": "nonpayable",
      "type": "function"
    },
    {
      "inputs": [
        {
          "internalType": "uint256",
          "name": "tokenId",
          "type": "uint256"
        }
      ],
      "name": "tokenURI",
      "outputs": [
        {
          "internalType": "string",
          "name": "",
          "type": "string"
        }
      ],
      "stateMutability": "view",
      "type": "function",
      "constant": true
    },
    {
      "inputs": [
        {
          "internalType": "uint256",
          "name": "tokenId",
          "type": "uint256"
        }
      ],
      "name": "getRoyalty",
      "outputs": [
        {
          "internalType": "uint8",
          "name": "royalty",
          "type": "uint8"
        }
      ],
      "stateMutability": "view",
      "type": "function",
      "constant": true
    },
    {
      "inputs": [
        {
          "internalType": "uint256",
          "name": "tokenId",
          "type": "uint256"
        }
      ],
      "name": "getCreator",
      "outputs": [
        {
          "internalType": "address payable",
          "name": "creator",
          "type": "address"
        }
      ],
      "stateMutability": "view",
      "type": "function",
      "constant": true
    }
  ],
  "bytecode": "0x60806040523480156200001157600080fd5b506040518060400160405280600581526020017f546f6b656e0000000000000000000000000000000000000000000000000000008152506040518060400160405280600181526020017f5400000000000000000000000000000000000000000000000000000000000000815250816000908051906020019062000096929190620000b8565b508060019080519060200190620000af929190620000b8565b505050620001cd565b828054620000c69062000168565b90600052602060002090601f016020900481019282620000ea576000855562000136565b82601f106200010557805160ff191683800117855562000136565b8280016001018555821562000136579182015b828111156200013557825182559160200191906001019062000118565b5b50905062000145919062000149565b5090565b5b80821115620001645760008160009055506001016200014a565b5090565b600060028204905060018216806200018157607f821691505b602082108114156200019857620001976200019e565b5b50919050565b7f4e487b7100000000000000000000000000000000000000000000000000000000600052602260045260246000fd5b612c3c80620001dd6000396000f3fe608060405234801561001057600080fd5b506004361061010b5760003560e01c80636352211e116100a2578063a22cb46511610071578063a22cb465146102f4578063b88d4fde14610310578063c87b56dd1461032c578063d48e638a1461035c578063e985e9c51461038c5761010b565b80636352211e1461024657806370a082311461027657806394e1208a146102a657806395d89b41146102d65761010b565b80631af9cf49116100de5780631af9cf49146101aa5780631e5521b7146101da57806323b872dd1461020e57806342842e0e1461022a5761010b565b806301ffc9a71461011057806306fdde0314610140578063081812fc1461015e578063095ea7b31461018e575b600080fd5b61012a60048036038101906101259190611d4c565b6103bc565b60405161013791906125ae565b60405180910390f35b61014861049e565b60405161015591906125c9565b60405180910390f35b61017860048036038101906101739190611df2565b610530565b604051610185919061252c565b60405180910390f35b6101a860048036038101906101a39190611d10565b6105b5565b005b6101c460048036038101906101bf9190611df2565b6106cd565b6040516101d19190612880565b60405180910390f35b6101f460048036038101906101ef9190611df2565b610742565b604051610205959493929190612826565b60405180910390f35b61022860048036038101906102239190611c0a565b61084d565b005b610244600480360381019061023f9190611c0a565b6108ad565b005b610260600480360381019061025b9190611df2565b6108cd565b60405161026d919061252c565b60405180910390f35b610290600480360381019061028b9190611ba5565b61097f565b60405161029d919061280b565b60405180910390f35b6102c060048036038101906102bb9190611d9e565b610a37565b6040516102cd919061280b565b60405180910390f35b6102de610bec565b6040516102eb91906125c9565b60405180910390f35b61030e60048036038101906103099190611cd4565b610c7e565b005b61032a60048036038101906103259190611c59565b610dff565b005b61034660048036038101906103419190611df2565b610e61565b60405161035391906125c9565b60405180910390f35b61037660048036038101906103719190611df2565b610f51565b6040516103839190612547565b60405180910390f35b6103a660048036038101906103a19190611bce565b610fd9565b6040516103b391906125ae565b60405180910390f35b60007f80ac58cd000000000000000000000000000000000000000000000000000000007bffffffffffffffffffffffffffffffffffffffffffffffffffffffff1916827bffffffffffffffffffffffffffffffffffffffffffffffffffffffff1916148061048757507f5b5e139f000000000000000000000000000000000000000000000000000000007bffffffffffffffffffffffffffffffffffffffffffffffffffffffff1916827bffffffffffffffffffffffffffffffffffffffffffffffffffffffff1916145b8061049757506104968261106d565b5b9050919050565b6060600080546104ad90612ac3565b80601f01602080910402602001604051908101604052809291908181526020018280546104d990612ac3565b80156105265780601f106104fb57610100808354040283529160200191610526565b820191906000526020600020905b81548152906001019060200180831161050957829003601f168201915b5050505050905090565b600061053b826110d7565b61057a576040517f08c379a00000000000000000000000000000000000000000000000000000000081526004016105719061276b565b60405180910390fd5b6004600083815260200190815260200160002060009054906101000a900473ffffffffffffffffffffffffffffffffffffffff169050919050565b60006105c0826108cd565b90508073ffffffffffffffffffffffffffffffffffffffff168373ffffffffffffffffffffffffffffffffffffffff161415610631576040517f08c379a0000000000000000000000000000000000000000000000000000000008152600401610628906127cb565b60405180910390fd5b8073ffffffffffffffffffffffffffffffffffffffff16610650611143565b73ffffffffffffffffffffffffffffffffffffffff16148061067f575061067e81610679611143565b610fd9565b5b6106be576040517f08c379a00000000000000000000000000000000000000000000000000000000081526004016106b5906126eb565b60405180910390fd5b6106c8838361114b565b505050565b60006106d8826110d7565b610717576040517f08c379a000000000000000000000000000000000000000000000000000000000815260040161070e9061260b565b60405180910390fd5b6007600083815260200190815260200160002060040160009054906101000a900460ff169050919050565b60076020528060005260406000206000915090508060000154908060010160009054906101000a900473ffffffffffffffffffffffffffffffffffffffff16908060020160009054906101000a900473ffffffffffffffffffffffffffffffffffffffff16908060030180546107b790612ac3565b80601f01602080910402602001604051908101604052809291908181526020018280546107e390612ac3565b80156108305780601f1061080557610100808354040283529160200191610830565b820191906000526020600020905b81548152906001019060200180831161081357829003601f168201915b5050505050908060040160009054906101000a900460ff16905085565b61085e610858611143565b82611204565b61089d576040517f08c379a0000000000000000000000000000000000000000000000000000000008152600401610894906127eb565b60405180910390fd5b6108a88383836112e2565b505050565b6108c883838360405180602001604052806000815250610dff565b505050565b6000806002600084815260200190815260200160002060009054906101000a900473ffffffffffffffffffffffffffffffffffffffff169050600073ffffffffffffffffffffffffffffffffffffffff168173ffffffffffffffffffffffffffffffffffffffff161415610976576040517f08c379a000000000000000000000000000000000000000000000000000000000815260040161096d9061272b565b60405180910390fd5b80915050919050565b60008073ffffffffffffffffffffffffffffffffffffffff168273ffffffffffffffffffffffffffffffffffffffff1614156109f0576040517f08c379a00000000000000000000000000000000000000000000000000000000081526004016109e79061270b565b60405180910390fd5b600360008373ffffffffffffffffffffffffffffffffffffffff1673ffffffffffffffffffffffffffffffffffffffff168152602001908152602001600020549050919050565b6000808260ff1611610a7e576040517f08c379a0000000000000000000000000000000000000000000000000000000008152600401610a759061266b565b60405180910390fd5b610a88600661153e565b6000610a946006611554565b9050610aa03382611562565b6040518060a001604052808281526020013373ffffffffffffffffffffffffffffffffffffffff1681526020013073ffffffffffffffffffffffffffffffffffffffff1681526020018581526020018460ff16815250600760008381526020019081526020016000206000820151816000015560208201518160010160006101000a81548173ffffffffffffffffffffffffffffffffffffffff021916908373ffffffffffffffffffffffffffffffffffffffff16021790555060408201518160020160006101000a81548173ffffffffffffffffffffffffffffffffffffffff021916908373ffffffffffffffffffffffffffffffffffffffff1602179055506060820151816003019080519060200190610bbd9291906119b4565b5060808201518160040160006101000a81548160ff021916908360ff1602179055509050508091505092915050565b606060018054610bfb90612ac3565b80601f0160208091040260200160405190810160405280929190818152602001828054610c2790612ac3565b8015610c745780601f10610c4957610100808354040283529160200191610c74565b820191906000526020600020905b815481529060010190602001808311610c5757829003601f168201915b5050505050905090565b610c86611143565b73ffffffffffffffffffffffffffffffffffffffff168273ffffffffffffffffffffffffffffffffffffffff161415610cf4576040517f08c379a0000000000000000000000000000000000000000000000000000000008152600401610ceb906126ab565b60405180910390fd5b8060056000610d01611143565b73ffffffffffffffffffffffffffffffffffffffff1673ffffffffffffffffffffffffffffffffffffffff16815260200190815260200160002060008473ffffffffffffffffffffffffffffffffffffffff1673ffffffffffffffffffffffffffffffffffffffff16815260200190815260200160002060006101000a81548160ff0219169083151502179055508173ffffffffffffffffffffffffffffffffffffffff16610dae611143565b73ffffffffffffffffffffffffffffffffffffffff167f17307eab39ab6107e8899845ad3d59bd9653f200f220920489ca2b5937696c3183604051610df391906125ae565b60405180910390a35050565b610e10610e0a611143565b83611204565b610e4f576040517f08c379a0000000000000000000000000000000000000000000000000000000008152600401610e46906127eb565b60405180910390fd5b610e5b84848484611580565b50505050565b6060610e6c826110d7565b610eab576040517f08c379a0000000000000000000000000000000000000000000000000000000008152600401610ea2906127ab565b60405180910390fd5b600760008381526020019081526020016000206003018054610ecc90612ac3565b80601f0160208091040260200160405190810160405280929190818152602001828054610ef890612ac3565b8015610f455780601f10610f1a57610100808354040283529160200191610f45565b820191906000526020600020905b815481529060010190602001808311610f2857829003601f168201915b50505050509050919050565b6000610f5c826110d7565b610f9b576040517f08c379a0000000000000000000000000000000000000000000000000000000008152600401610f92906125eb565b60405180910390fd5b6007600083815260200190815260200160002060010160009054906101000a900473ffffffffffffffffffffffffffffffffffffffff169050919050565b6000600560008473ffffffffffffffffffffffffffffffffffffffff1673ffffffffffffffffffffffffffffffffffffffff16815260200190815260200160002060008373ffffffffffffffffffffffffffffffffffffffff1673ffffffffffffffffffffffffffffffffffffffff16815260200190815260200160002060009054906101000a900460ff16905092915050565b60007f01ffc9a7000000000000000000000000000000000000000000000000000000007bffffffffffffffffffffffffffffffffffffffffffffffffffffffff1916827bffffffffffffffffffffffffffffffffffffffffffffffffffffffff1916149050919050565b60008073ffffffffffffffffffffffffffffffffffffffff166002600084815260200190815260200160002060009054906101000a900473ffffffffffffffffffffffffffffffffffffffff1673ffffffffffffffffffffffffffffffffffffffff1614159050919050565b600033905090565b816004600083815260200190815260200160002060006101000a81548173ffffffffffffffffffffffffffffffffffffffff021916908373ffffffffffffffffffffffffffffffffffffffff160217905550808273ffffffffffffffffffffffffffffffffffffffff166111be836108cd565b73ffffffffffffffffffffffffffffffffffffffff167f8c5be1e5ebec7d5bd14f71427d1e84f3dd0314c0f7b2291e5b200ac8c7c3b92560405160405180910390a45050565b600061120f826110d7565b61124e576040517f08c379a0000000000000000000000000000000000000000000000000000000008152600401611245906126cb565b60405180910390fd5b6000611259836108cd565b90508073ffffffffffffffffffffffffffffffffffffffff168473ffffffffffffffffffffffffffffffffffffffff1614806112c857508373ffffffffffffffffffffffffffffffffffffffff166112b084610530565b73ffffffffffffffffffffffffffffffffffffffff16145b806112d957506112d88185610fd9565b5b91505092915050565b8273ffffffffffffffffffffffffffffffffffffffff16611302826108cd565b73ffffffffffffffffffffffffffffffffffffffff1614611358576040517f08c379a000000000000000000000000000000000000000000000000000000000815260040161134f9061278b565b60405180910390fd5b600073ffffffffffffffffffffffffffffffffffffffff168273ffffffffffffffffffffffffffffffffffffffff1614156113c8576040517f08c379a00000000000000000000000000000000000000000000000000000000081526004016113bf9061268b565b60405180910390fd5b6113d38383836115dc565b6113de60008261114b565b6001600360008573ffffffffffffffffffffffffffffffffffffffff1673ffffffffffffffffffffffffffffffffffffffff168152602001908152602001600020600082825461142e91906129ba565b925050819055506001600360008473ffffffffffffffffffffffffffffffffffffffff1673ffffffffffffffffffffffffffffffffffffffff16815260200190815260200160002060008282546114859190612964565b92505081905550816002600083815260200190815260200160002060006101000a81548173ffffffffffffffffffffffffffffffffffffffff021916908373ffffffffffffffffffffffffffffffffffffffff160217905550808273ffffffffffffffffffffffffffffffffffffffff168473ffffffffffffffffffffffffffffffffffffffff167fddf252ad1be2c89b69c2b068fc378daa952ba7f163c4a11628f55a4df523b3ef60405160405180910390a4505050565b6001816000016000828254019250508190555050565b600081600001549050919050565b61157c8282604051806020016040528060008152506115e1565b5050565b61158b8484846112e2565b6115978484848461163c565b6115d6576040517f08c379a00000000000000000000000000000000000000000000000000000000081526004016115cd9061262b565b60405180910390fd5b50505050565b505050565b6115eb83836117d3565b6115f8600084848461163c565b611637576040517f08c379a000000000000000000000000000000000000000000000000000000000815260040161162e9061262b565b60405180910390fd5b505050565b600061165d8473ffffffffffffffffffffffffffffffffffffffff166119a1565b156117c6578373ffffffffffffffffffffffffffffffffffffffff1663150b7a02611686611143565b8786866040518563ffffffff1660e01b81526004016116a89493929190612562565b602060405180830381600087803b1580156116c257600080fd5b505af19250505080156116f357506040513d601f19601f820116820180604052508101906116f09190611d75565b60015b611776573d8060008114611723576040519150601f19603f3d011682016040523d82523d6000602084013e611728565b606091505b5060008151141561176e576040517f08c379a00000000000000000000000000000000000000000000000000000000081526004016117659061262b565b60405180910390fd5b805181602001fd5b63150b7a0260e01b7bffffffffffffffffffffffffffffffffffffffffffffffffffffffff1916817bffffffffffffffffffffffffffffffffffffffffffffffffffffffff1916149150506117cb565b600190505b949350505050565b600073ffffffffffffffffffffffffffffffffffffffff168273ffffffffffffffffffffffffffffffffffffffff161415611843576040517f08c379a000000000000000000000000000000000000000000000000000000000815260040161183a9061274b565b60405180910390fd5b61184c816110d7565b1561188c576040517f08c379a00000000000000000000000000000000000000000000000000000000081526004016118839061264b565b60405180910390fd5b611898600083836115dc565b6001600360008473ffffffffffffffffffffffffffffffffffffffff1673ffffffffffffffffffffffffffffffffffffffff16815260200190815260200160002060008282546118e89190612964565b92505081905550816002600083815260200190815260200160002060006101000a81548173ffffffffffffffffffffffffffffffffffffffff021916908373ffffffffffffffffffffffffffffffffffffffff160217905550808273ffffffffffffffffffffffffffffffffffffffff16600073ffffffffffffffffffffffffffffffffffffffff167fddf252ad1be2c89b69c2b068fc378daa952ba7f163c4a11628f55a4df523b3ef60405160405180910390a45050565b600080823b905060008111915050919050565b8280546119c090612ac3565b90600052602060002090601f0160209004810192826119e25760008555611a29565b82601f106119fb57805160ff1916838001178555611a29565b82800160010185558215611a29579182015b82811115611a28578251825591602001919060010190611a0d565b5b509050611a369190611a3a565b5090565b5b80821115611a53576000816000905550600101611a3b565b5090565b6000611a6a611a65846128cc565b61289b565b905082815260208101848484011115611a8257600080fd5b611a8d848285612a81565b509392505050565b6000611aa8611aa3846128fc565b61289b565b905082815260208101848484011115611ac057600080fd5b611acb848285612a81565b509392505050565b600081359050611ae281612b93565b92915050565b600081359050611af781612baa565b92915050565b600081359050611b0c81612bc1565b92915050565b600081519050611b2181612bc1565b92915050565b600082601f830112611b3857600080fd5b8135611b48848260208601611a57565b91505092915050565b600082601f830112611b6257600080fd5b8135611b72848260208601611a95565b91505092915050565b600081359050611b8a81612bd8565b92915050565b600081359050611b9f81612bef565b92915050565b600060208284031215611bb757600080fd5b6000611bc584828501611ad3565b91505092915050565b60008060408385031215611be157600080fd5b6000611bef85828601611ad3565b9250506020611c0085828601611ad3565b9150509250929050565b600080600060608486031215611c1f57600080fd5b6000611c2d86828701611ad3565b9350506020611c3e86828701611ad3565b9250506040611c4f86828701611b7b565b9150509250925092565b60008060008060808587031215611c6f57600080fd5b6000611c7d87828801611ad3565b9450506020611c8e87828801611ad3565b9350506040611c9f87828801611b7b565b925050606085013567ffffffffffffffff811115611cbc57600080fd5b611cc887828801611b27565b91505092959194509250565b60008060408385031215611ce757600080fd5b6000611cf585828601611ad3565b9250506020611d0685828601611ae8565b9150509250929050565b60008060408385031215611d2357600080fd5b6000611d3185828601611ad3565b9250506020611d4285828601611b7b565b9150509250929050565b600060208284031215611d5e57600080fd5b6000611d6c84828501611afd565b91505092915050565b600060208284031215611d8757600080fd5b6000611d9584828501611b12565b91505092915050565b60008060408385031215611db157600080fd5b600083013567ffffffffffffffff811115611dcb57600080fd5b611dd785828601611b51565b9250506020611de885828601611b90565b9150509250929050565b600060208284031215611e0457600080fd5b6000611e1284828501611b7b565b91505092915050565b611e2481612a00565b82525050565b611e33816129ee565b82525050565b611e4281612a12565b82525050565b6000611e538261292c565b611e5d8185612942565b9350611e6d818560208601612a90565b611e7681612b82565b840191505092915050565b6000611e8c82612937565b611e968185612953565b9350611ea6818560208601612a90565b611eaf81612b82565b840191505092915050565b6000611ec7603383612953565b91507f4552433732314d657461646174613a2043726561746f7220717565727920666f60008301527f72206e6f6e6578697374656e7420746f6b656e000000000000000000000000006020830152604082019050919050565b6000611f2d603383612953565b91507f4552433732314d657461646174613a20526f79616c747920717565727920666f60008301527f72206e6f6e6578697374656e7420746f6b656e000000000000000000000000006020830152604082019050919050565b6000611f93603283612953565b91507f4552433732313a207472616e7366657220746f206e6f6e20455243373231526560008301527f63656976657220696d706c656d656e74657200000000000000000000000000006020830152604082019050919050565b6000611ff9601c83612953565b91507f4552433732313a20746f6b656e20616c7265616479206d696e746564000000006000830152602082019050919050565b6000612039602b83612953565b91507f526f79616c74792063616e6e6f74206265207a65726f206f7220736d616c6c6560008301527f72207468616e207a65726f0000000000000000000000000000000000000000006020830152604082019050919050565b600061209f602483612953565b91507f4552433732313a207472616e7366657220746f20746865207a65726f2061646460008301527f72657373000000000000000000000000000000000000000000000000000000006020830152604082019050919050565b6000612105601983612953565b91507f4552433732313a20617070726f766520746f2063616c6c6572000000000000006000830152602082019050919050565b6000612145602c83612953565b91507f4552433732313a206f70657261746f7220717565727920666f72206e6f6e657860008301527f697374656e7420746f6b656e00000000000000000000000000000000000000006020830152604082019050919050565b60006121ab603883612953565b91507f4552433732313a20617070726f76652063616c6c6572206973206e6f74206f7760008301527f6e6572206e6f7220617070726f76656420666f7220616c6c00000000000000006020830152604082019050919050565b6000612211602a83612953565b91507f4552433732313a2062616c616e636520717565727920666f7220746865207a6560008301527f726f2061646472657373000000000000000000000000000000000000000000006020830152604082019050919050565b6000612277602983612953565b91507f4552433732313a206f776e657220717565727920666f72206e6f6e657869737460008301527f656e7420746f6b656e00000000000000000000000000000000000000000000006020830152604082019050919050565b60006122dd602083612953565b91507f4552433732313a206d696e7420746f20746865207a65726f20616464726573736000830152602082019050919050565b600061231d602c83612953565b91507f4552433732313a20617070726f76656420717565727920666f72206e6f6e657860008301527f697374656e7420746f6b656e00000000000000000000000000000000000000006020830152604082019050919050565b6000612383602983612953565b91507f4552433732313a207472616e73666572206f6620746f6b656e2074686174206960008301527f73206e6f74206f776e00000000000000000000000000000000000000000000006020830152604082019050919050565b60006123e9602f83612953565b91507f4552433732314d657461646174613a2055524920717565727920666f72206e6f60008301527f6e6578697374656e7420746f6b656e00000000000000000000000000000000006020830152604082019050919050565b600061244f602183612953565b91507f4552433732313a20617070726f76616c20746f2063757272656e74206f776e6560008301527f72000000000000000000000000000000000000000000000000000000000000006020830152604082019050919050565b60006124b5603183612953565b91507f4552433732313a207472616e736665722063616c6c6572206973206e6f74206f60008301527f776e6572206e6f7220617070726f7665640000000000000000000000000000006020830152604082019050919050565b61251781612a6a565b82525050565b61252681612a74565b82525050565b60006020820190506125416000830184611e2a565b92915050565b600060208201905061255c6000830184611e1b565b92915050565b60006080820190506125776000830187611e2a565b6125846020830186611e2a565b612591604083018561250e565b81810360608301526125a38184611e48565b905095945050505050565b60006020820190506125c36000830184611e39565b92915050565b600060208201905081810360008301526125e38184611e81565b905092915050565b6000602082019050818103600083015261260481611eba565b9050919050565b6000602082019050818103600083015261262481611f20565b9050919050565b6000602082019050818103600083015261264481611f86565b9050919050565b6000602082019050818103600083015261266481611fec565b9050919050565b600060208201905081810360008301526126848161202c565b9050919050565b600060208201905081810360008301526126a481612092565b9050919050565b600060208201905081810360008301526126c4816120f8565b9050919050565b600060208201905081810360008301526126e481612138565b9050919050565b600060208201905081810360008301526127048161219e565b9050919050565b6000602082019050818103600083015261272481612204565b9050919050565b600060208201905081810360008301526127448161226a565b9050919050565b60006020820190508181036000830152612764816122d0565b9050919050565b6000602082019050818103600083015261278481612310565b9050919050565b600060208201905081810360008301526127a481612376565b9050919050565b600060208201905081810360008301526127c4816123dc565b9050919050565b600060208201905081810360008301526127e481612442565b9050919050565b60006020820190508181036000830152612804816124a8565b9050919050565b6000602082019050612820600083018461250e565b92915050565b600060a08201905061283b600083018861250e565b6128486020830187611e1b565b6128556040830186611e2a565b81810360608301526128678185611e81565b9050612876608083018461251d565b9695505050505050565b6000602082019050612895600083018461251d565b92915050565b6000604051905081810181811067ffffffffffffffff821117156128c2576128c1612b53565b5b8060405250919050565b600067ffffffffffffffff8211156128e7576128e6612b53565b5b601f19601f8301169050602081019050919050565b600067ffffffffffffffff82111561291757612916612b53565b5b601f19601f8301169050602081019050919050565b600081519050919050565b600081519050919050565b600082825260208201905092915050565b600082825260208201905092915050565b600061296f82612a6a565b915061297a83612a6a565b9250827fffffffffffffffffffffffffffffffffffffffffffffffffffffffffffffffff038211156129af576129ae612af5565b5b828201905092915050565b60006129c582612a6a565b91506129d083612a6a565b9250828210156129e3576129e2612af5565b5b828203905092915050565b60006129f982612a4a565b9050919050565b6000612a0b82612a4a565b9050919050565b60008115159050919050565b60007fffffffff0000000000000000000000000000000000000000000000000000000082169050919050565b600073ffffffffffffffffffffffffffffffffffffffff82169050919050565b6000819050919050565b600060ff82169050919050565b82818337600083830152505050565b60005b83811015612aae578082015181840152602081019050612a93565b83811115612abd576000848401525b50505050565b60006002820490506001821680612adb57607f821691505b60208210811415612aef57612aee612b24565b5b50919050565b7f4e487b7100000000000000000000000000000000000000000000000000000000600052601160045260246000fd5b7f4e487b7100000000000000000000000000000000000000000000000000000000600052602260045260246000fd5b7f4e487b7100000000000000000000000000000000000000000000000000000000600052604160045260246000fd5b6000601f19601f8301169050919050565b612b9c816129ee565b8114612ba757600080fd5b50565b612bb381612a12565b8114612bbe57600080fd5b50565b612bca81612a1e565b8114612bd557600080fd5b50565b612be181612a6a565b8114612bec57600080fd5b50565b612bf881612a74565b8114612c0357600080fd5b5056fea26469706673582212203c31ca6d07166cfaaa9575a2fed5ac2c92fb4a51c6aedae1d71a16067ae55ca164736f6c63430008000033",
  "immutableReferences": {},
  "source": "// SPDX-License-Identifier: MIT\r\n\r\npragma solidity ^0.8.0;\r\n\r\nimport \"./node_modules/@openzeppelin/contracts/token/ERC721/ERC721.sol\";\r\nimport \"./node_modules/@openzeppelin/contracts/utils/Counters.sol\";\r\n\r\ncontract Token is ERC721 {\r\n  using Counters for Counters.Counter;\r\n  Counters.Counter private _tokenIds;\r\n\r\n  constructor () ERC721(\"Token\", \"T\"){}\r\n\r\n  struct Artwork{\r\n    uint256 id;\r\n    address payable creator;\r\n    address tokenAddress;\r\n    string uri;\r\n    uint8 royalty;\r\n  }\r\n\r\n  mapping(uint256 => Artwork) public Artworks;\r\n\r\n  function createArtwork(string memory uri, uint8 royalty) public returns(uint256){\r\n    require(royalty > 0, \"Royalty cannot be zero or smaller than zero\");\r\n    _tokenIds.increment();\r\n    uint256 newArtworkId = _tokenIds.current();\r\n    _safeMint(payable(msg.sender), newArtworkId);\r\n\r\n    Artworks[newArtworkId] = Artwork(newArtworkId, payable(msg.sender), address(this), uri, royalty);\r\n\r\n    return newArtworkId;\r\n  }\r\n\r\n  function tokenURI(uint256 tokenId) public view override returns (string memory) {\r\n    require(_exists(tokenId), \"ERC721Metadata: URI query for nonexistent token\");\r\n\r\n    return Artworks[tokenId].uri;\r\n  }\r\n\r\n  function getRoyalty(uint256 tokenId) external virtual view returns(uint8 royalty){\r\n    require(_exists(tokenId), \"ERC721Metadata: Royalty query for nonexistent token\");\r\n\r\n    return Artworks[tokenId].royalty;\r\n  }\r\n\r\n  function getCreator(uint256 tokenId) external virtual view returns(address payable creator){\r\n    require(_exists(tokenId), \"ERC721Metadata: Creator query for nonexistent token\");\r\n\r\n    return payable(Artworks[tokenId].creator);\r\n  }\r\n}\r\n",
  "sourcePath": "C:\\Users\\pol\\Desktop\\t\\decentralized-marketplace\\contracts\\Token.sol",
  "compiler": {
    "name": "solc",
    "version": "0.8.0+commit.c7dfd78e.Emscripten.clang"
  },
  "schemaVersion": "3.4.4",
  "updatedAt": "2022-05-29T20:55:10.127Z",
  "networkType": "ethereum",
  "devdoc": {
    "kind": "dev",
    "methods": {
      "approve(address,uint256)": {
        "details": "See {IERC721-approve}."
      },
      "balanceOf(address)": {
        "details": "See {IERC721-balanceOf}."
      },
      "getApproved(uint256)": {
        "details": "See {IERC721-getApproved}."
      },
      "isApprovedForAll(address,address)": {
        "details": "See {IERC721-isApprovedForAll}."
      },
      "name()": {
        "details": "See {IERC721Metadata-name}."
      },
      "ownerOf(uint256)": {
        "details": "See {IERC721-ownerOf}."
      },
      "safeTransferFrom(address,address,uint256)": {
        "details": "See {IERC721-safeTransferFrom}."
      },
      "safeTransferFrom(address,address,uint256,bytes)": {
        "details": "See {IERC721-safeTransferFrom}."
      },
      "setApprovalForAll(address,bool)": {
        "details": "See {IERC721-setApprovalForAll}."
      },
      "supportsInterface(bytes4)": {
        "details": "See {IERC165-supportsInterface}."
      },
      "symbol()": {
        "details": "See {IERC721Metadata-symbol}."
      },
      "tokenURI(uint256)": {
        "details": "See {IERC721Metadata-tokenURI}."
      },
      "transferFrom(address,address,uint256)": {
        "details": "See {IERC721-transferFrom}."
      }
    },
    "version": 1
  },
  "userdoc": {
    "kind": "user",
    "methods": {},
    "version": 1
  }
}